:020000040000fa
:080000000001040000000000f3
:020000040000fa
:0400080004020000ee
:020000040000fa
:04000c0046020000a8
:020000040000fa
:040010008602000064
:020000040000fa
:0400140024020000c2
:020000040000fa
:04001800660200007c
:020000040000fa
:04001c00c602000018
:020000040000fa
:04002000a602000034
:020000040000fa
:04002400c602000010
:020000040000fa
:04002800c60200000c
:020000040000fa
:04002c00c602000008
:020000040000fa
:04003000c602000004
:020000040000fa
:04003400c602000000
:020000040000fa
:04003800c6020000fc
:020000040000fa
:04003c00c6020000f8
:020000040000fa
:04004000c6020000f4
:020000040000fa
:04004400c6020000f0
:020000040000fa
:04004800c6020000ec
:020000040000fa
:04004c00c6020000e8
:020000040000fa
:04005000c6020000e4
:020000040000fa
:04005400c6020000e0
:020000040000fa
:04005800c6020000dc
:020000040000fa
:04005c00c6020000d8
:020000040000fa
:04006000c6020000d4
:020000040000fa
:04006400c6020000d0
:020000040000fa
:04006800c6020000cc
:020000040000fa
:04006c00c6020000c8
:020000040000fa
:04007000c6020000c4
:020000040000fa
:04007400c6020000c0
:020000040000fa
:04007800c6020000bc
:020000040000fa
:04007c00c6020000b8
:020000040000fa
:04008000c6020000b4
:020000040000fa
:04008400c6020000b0
:020000040000fa
:04008800c6020000ac
:020000040000fa
:04008c00c6020000a8
:020000040000fa
:04009000c6020000a4
:020000040000fa
:04009400c6020000a0
:020000040000fa
:04009800c60200009c
:020000040000fa
:04009c00c602000098
:020000040000fa
:0400a000c602000094
:020000040000fa
:0400a400c602000090
:020000040000fa
:0400a800c60200008c
:020000040000fa
:0400ac00c602000088
:020000040000fa
:0400b000c602000084
:020000040000fa
:0400b400c602000080
:020000040000fa
:0400b800c60200007c
:020000040000fa
:0400bc00c602000078
:020000040000fa
:0400c000c602000074
:020000040000fa
:0400c400c602000070
:020000040000fa
:0400c800c60200006c
:020000040000fa
:0400cc00c602000068
:020000040000fa
:0400d000c602000064
:020000040000fa
:0400d400c602000060
:020000040000fa
:0400d800c60200005c
:020000040000fa
:0400dc00c602000058
:020000040000fa
:0400e000c602000054
:020000040000fa
:0400e400c602000050
:020000040000fa
:0400e800c60200004c
:020000040000fa
:0400ec00c602000048
:020000040000fa
:0400f000c602000044
:020000040000fa
:0400f400c602000040
:020000040000fa
:0400f800c60200003c
:020000040000fa
:0400fc00c602000038
:020000040000fa
:04010000c602000033
:020000040000fa
:04010400c60200002f
:020000040000fa
:04010800c60200002b
:020000040000fa
:04010c00c602000027
:020000040000fa
:04011000c602000023
:020000040000fa
:04011400c60200001f
:020000040000fa
:04011800c60200001b
:020000040000fa
:04011c00c602000017
:020000040000fa
:04012000c602000013
:020000040000fa
:04012400c60200000f
:020000040000fa
:04012800c60200000b
:020000040000fa
:04012c00c602000007
:020000040000fa
:04013000c602000003
:020000040000fa
:04013400c6020000ff
:020000040000fa
:04013800c6020000fb
:020000040000fa
:04013c00c6020000f7
:020000040000fa
:04014000c6020000f3
:020000040000fa
:04014400c6020000ef
:020000040000fa
:04014800c6020000eb
:020000040000fa
:04014c00c6020000e7
:020000040000fa
:04015000c6020000e3
:020000040000fa
:04015400c6020000df
:020000040000fa
:04015800c6020000db
:020000040000fa
:04015c00c6020000d7
:020000040000fa
:04016000c6020000d3
:020000040000fa
:04016400c6020000cf
:020000040000fa
:04016800c6020000cb
:020000040000fa
:04016c00c6020000c7
:020000040000fa
:04017000c6020000c3
:020000040000fa
:04017400c6020000bf
:020000040000fa
:04017800c6020000bb
:020000040000fa
:04017c00c6020000b7
:020000040000fa
:04018000c6020000b3
:020000040000fa
:04018400c6020000af
:020000040000fa
:04018800c6020000ab
:020000040000fa
:04018c00c6020000a7
:020000040000fa
:04019000c6020000a3
:020000040000fa
:04019400c60200009f
:020000040000fa
:04019800c60200009b
:020000040000fa
:04019c00c602000097
:020000040000fa
:0401a000c602000093
:020000040000fa
:0401a400c60200008f
:020000040000fa
:0401a800c60200008b
:020000040000fa
:0401ac00c602000087
:020000040000fa
:0401b000c602000083
:020000040000fa
:0401b400c60200007f
:020000040000fa
:0401b800c60200007b
:020000040000fa
:0401bc00c602000077
:020000040000fa
:0401c000c602000073
:020000040000fa
:0401c400c60200006f
:020000040000fa
:0401c800c60200006b
:020000040000fa
:0401cc00c602000067
:020000040000fa
:0401d000c602000063
:020000040000fa
:0401d400c60200005f
:020000040000fa
:0401d800c60200005b
:020000040000fa
:0401dc00c602000057
:020000040000fa
:0401e000c602000053
:020000040000fa
:0401e400c60200004f
:020000040000fa
:0401e800c60200004b
:020000040000fa
:0401ec00c602000047
:020000040000fa
:0401f000c602000043
:020000040000fa
:0401f400c60200003f
:020000040000fa
:0401f800c60200003b
:020000040000fa
:0401fc00c602000037
:020000040000fa
:100200004f8520000eff27000e018800000000002f
:10021000000020000000e000020032000001200089
:100220002002880014000700ee0007000000e00034
:1002300003003a00c04d20000100200002003700fa
:100240000000200001002000810f7000010032003a
:1002500014000700000020000000e000020032004f
:100260000000020000000000000502000000000085
:100270000040da000000fe004440a90020002000f9
:100280000000e00003003200100020009001880010
:100290004440a800000006008a1f78008b1f7800e9
:1002a00000000600a1028800800478000000eb0036
:1002b0001f003700e284440054a0b4009905ba003e
:1002c000e284440054a0b4009906ba00e2844400d9
:1002d00054a0b4000006eb00476fde00fd07b2003b
:1002e000ae018800636ce10003003a00eaff0700fa
:1002f0000000eb000e003700606ce10008003a00df
:10030000004deb000a05e800020039003420ec0043
:100310000af0a0008b05e900f9ff3e000400370059
:100320006168e100010032000086eb000b0007006d
:1003300019c7ba001905ba000e04e00003003a001c
:100340000a00e000dbff3a0000000600fe07b200f2
:10035000ae0288008a047800f5ff37000cd0a300b5
:10036000e20f4d001c00390089027800354dba00bb
:100370000a05e800020039003420ec000af0a00071
:100380008b05e9000f003200254dba000a05e80090
:10039000020039003420ec000af0a0008b05e900cf
:1003a000080032000c00e0000600320015cdba0053
:1003b0000a05e800020039003420ec000af0a00031
:1003c0008b05e9008984e80054a0b4000b00e0002c
:1003d000e2ff3a00000006009902ba00055d7800cd
:1003e0008b05e900f7ff3200c82ade00055d7800c2
:1003f0008b05e900f3ff32000c00e000f1ff320052
:1004000019ddba00eeff37003600f800809fbe000d
:10041000829fbe00849fbe00869fbe000000fa003f
:100420008020a9000000eb00570107000080fa00bf
:100430004f03be004f02be004f01be004f00be0082
:100440003600f900004006003600f800809fbe002c
:10045000829fbe00849fbe00869fbe000000fa00ff
:100460004e0107008040a90010002000460107004f
:100470000080fa004f03be004f02be004f01be00d5
:100480004f00be003600f900004006003600f800bc
:10049000809fbe00829fbe00849fbe00869fbe00dc
:1004a0000000fa008060a90020002000360107004b
:1004b0000080fa004f03be004f02be004f01be0095
:1004c0004f00be003600f900004006003600f8007c
:1004d000809fbe00829fbe00849fbe00869fbe009c
:1004e0000000fa008080a9003000200026010700eb
:1004f0000080fa004f03be004f02be004f01be0055
:100500004f00be003600f900004006003600f8003b
:10051000809fbe00829fbe00849fbe00869fbe005b
:100520000000fa008600a9007000200016010700f4
:100530000080fa004f03be004f02be004f01be0014
:100540004f00be003600f900004006003600f800fb
:10055000809fbe00829fbe00849fbe00869fbe001b
:100560000000fa0085e0a9008000200006010700d5
:100570000080fa004f03be004f02be004f01be00d4
:100580004f00be003600f900004006000040da00cf
:100590000000fe000800fa001007980021079800ec
:1005a00032079800be009000010f78000700370066
:1005b0002e00900010407800ae0090008100e8000e
:1005c000210798008e0007001e0fe9001e0078002a
:1005d0000000e000f6ff3a003e0090000080fa00c4
:0805e000000006000000050008
:020000040000fa
:1005e8000000fa006426ef007826ef008c26ef0062
:1005f800a026ef00b426ef00000220004036880055
:10060800dc26ef00f026ef00c06f2c0000338800d6
:100618000080eb00a0338800e00127004034880008
:100628000080eb00e0348800f03f2000803588002f
:10063800f019230020368800f03c2f00c0368800cf
:1006480010002000603788007226ef008626ef0031
:100658009a26ef00ae26ef00c226ef00d626ef005e
:10066800ea26ef00fe26ef007026ef008426ef0052
:100678009826ef00ac26ef00c026ef00d426ef0046
:10068800e826ef00fc26ef007226ef008626ef0032
:100698009a26ef00ae26ef00c226ef00d626ef001e
:1006a800ea26ef00fe26ef007026ef008426ef0012
:1006b8009826ef00ac26ef00c026ef00d426ef0006
:1006c800e826ef00fc26ef006626ef007a26ef000a
:1006d8008e26ef00a226ef00b626ef00ca26ef000e
:1006e800de26ef00f226ef00000c200040338800e1
:1006f800c0ff2f00e033880000012000803488000c
:1007080000cc20002035880080212000c0358800da
:10071800003c20000037880001088000f00b200012
:100728000081600060042000710520000310200093
:10073800804978008149780082497800a13d80008d
:1007480000fc2f0000806000a000b300a03d8800de
:10075800213f8000f00f28008080600000302000da
:1007680001007000203f8800000880000001780028
:100778000260a00060042000710520000310200022
:100788008049780081497800824978000080fa0021
:10079800000006000000fa0080002000c01c88004d
:1007a8009a23ef0070062000001d880099e3a80036
:1007b8009b43a8000080fa00000006000000fa0031
:1007c80000000000d01c8000610060000000e00014
:1007d800fcff3200d01c8000620060000000e000d6
:1007e800010032009a23a900f01c80000040780024
:1007f8000080fa00000006000200fa00004f7800ae
:1008080000000000d11c8000002020000080600053
:100818000000e000fbff3a001e80fb00e01c88009f
:100828000080fa00000006000000fa00d01c8000da
:1008380000407800614060000080fb0000f0a700e5
:100848000000ea000000ea004f00de0000407800e7
:100858000080fa00000006000000fa00d11c8000a9
:1008680000202000008060000000e00007003a003f
:10087800d11c800000402000008060000000e000e3
:100888000200320010002000010037000000eb00d9
:10089800004078000080fa00000006000000fa001e
:1008a800d01c80004800de00614060000080fb0032
:1008b80000f0a7000000ea000000ea004f00de0098
:1008c800004078000080fa00000006000000fa00ee
:1008d800d01c80000080fa00000006000000fa002a
:1008e80099e3a8009b43a8000080fa0000000600d6
:1008f8000000fa0099e3a9009b43a9000080fa00d0
:10090800000006000000fa0000002300100888001c
:100918000621ef006821ef006a21ef000c21ef00ab
:100928000e21ef007821ef007c21ef007e21ef00ff
:100938008021ef008221ef008421ef008621ef0063
:100948000001eb0080072000a109200013102000ff
:100958008049780081497800824978000001eb00dd
:1009680060042000710520000310200080497800f1
:1009780081497800824978000080fa00000006006a
:100988000200fa00000f78009e00780001408800fd
:10099800ffff37000000fa0040832000800778003e
:1009a800c0842000000188000080fa0000000600d2
:020000040000fa
:1009b8000208000032000000800000003408000037
:1009c8002000000080000000000800000200000075
:0c09d80082000000ffff00000000000093
:020000040000fa
:1009e4000000fa00fffe070008000700c6ff07002a
:1009f40069ff07000080fa00000006000000fa000a
:100a0400f7ff07006eff0700feff37000000fa0043
:080a14000080fa00000006005a
:020000040000fa
:02000004000af0
:04be0000ffffff0041
:020000040000fa
:02000004000af0
:04be2000ffffff0021
:020000040000fa
:02000004000af0
:04be300078ffff0098
:020000040000fa
:02000004000af0
:04be3800b7ffff0051
:020000040000fa
:02000004000af0
:04be40009fffff0061
:020000040000fa
:02000004000af0
:04be4800ffffff00f9
:020000040000fa
:02000004000af0
:04be5000dfffff0011
:020000040000fa
:02000004000af0
:04be58000000ff00e7
:020000040000fa
:02000004000af0
:04be60000000ff00df
:020000040000fa
:02000004000af0
:04be68000000ff00d7
:020000040000fa
:02000004000af0
:04be70000000ff00cf
:020000040000fa
:02000004000af0
:04be7800ffffff00c9
:020000040000fa
:02000004000af0
:04be8000ffffff00c1
:020000040000fa
:020000040100f9
:04300000ffffff00cf
:00000001FF
